{
  "_format": "hh-sol-artifact-1",
  "contractName": "Domains",
  "sourceName": "contracts/Domains.sol",
  "abi": [
    {
      "inputs": [
        {
          "internalType": "string",
          "name": "_tld",
          "type": "string"
        }
      ],
      "stateMutability": "payable",
      "type": "constructor"
    },
    {
      "anonymous": false,
      "inputs": [
        {
          "indexed": true,
          "internalType": "address",
          "name": "owner",
          "type": "address"
        },
        {
          "indexed": true,
          "internalType": "address",
          "name": "approved",
          "type": "address"
        },
        {
          "indexed": true,
          "internalType": "uint256",
          "name": "tokenId",
          "type": "uint256"
        }
      ],
      "name": "Approval",
      "type": "event"
    },
    {
      "anonymous": false,
      "inputs": [
        {
          "indexed": true,
          "internalType": "address",
          "name": "owner",
          "type": "address"
        },
        {
          "indexed": true,
          "internalType": "address",
          "name": "operator",
          "type": "address"
        },
        {
          "indexed": false,
          "internalType": "bool",
          "name": "approved",
          "type": "bool"
        }
      ],
      "name": "ApprovalForAll",
      "type": "event"
    },
    {
      "anonymous": false,
      "inputs": [
        {
          "indexed": true,
          "internalType": "address",
          "name": "from",
          "type": "address"
        },
        {
          "indexed": true,
          "internalType": "address",
          "name": "to",
          "type": "address"
        },
        {
          "indexed": true,
          "internalType": "uint256",
          "name": "tokenId",
          "type": "uint256"
        }
      ],
      "name": "Transfer",
      "type": "event"
    },
    {
      "inputs": [
        {
          "internalType": "address",
          "name": "to",
          "type": "address"
        },
        {
          "internalType": "uint256",
          "name": "tokenId",
          "type": "uint256"
        }
      ],
      "name": "approve",
      "outputs": [],
      "stateMutability": "nonpayable",
      "type": "function"
    },
    {
      "inputs": [
        {
          "internalType": "address",
          "name": "owner",
          "type": "address"
        }
      ],
      "name": "balanceOf",
      "outputs": [
        {
          "internalType": "uint256",
          "name": "",
          "type": "uint256"
        }
      ],
      "stateMutability": "view",
      "type": "function"
    },
    {
      "inputs": [
        {
          "internalType": "string",
          "name": "",
          "type": "string"
        }
      ],
      "name": "domains",
      "outputs": [
        {
          "internalType": "address",
          "name": "",
          "type": "address"
        }
      ],
      "stateMutability": "view",
      "type": "function"
    },
    {
      "inputs": [
        {
          "internalType": "string",
          "name": "name",
          "type": "string"
        }
      ],
      "name": "getAddress",
      "outputs": [
        {
          "internalType": "address",
          "name": "",
          "type": "address"
        }
      ],
      "stateMutability": "view",
      "type": "function"
    },
    {
      "inputs": [],
      "name": "getAllNames",
      "outputs": [
        {
          "internalType": "string[]",
          "name": "",
          "type": "string[]"
        }
      ],
      "stateMutability": "view",
      "type": "function"
    },
    {
      "inputs": [
        {
          "internalType": "uint256",
          "name": "tokenId",
          "type": "uint256"
        }
      ],
      "name": "getApproved",
      "outputs": [
        {
          "internalType": "address",
          "name": "",
          "type": "address"
        }
      ],
      "stateMutability": "view",
      "type": "function"
    },
    {
      "inputs": [
        {
          "internalType": "string",
          "name": "name",
          "type": "string"
        }
      ],
      "name": "getPrice",
      "outputs": [
        {
          "internalType": "uint256",
          "name": "",
          "type": "uint256"
        }
      ],
      "stateMutability": "pure",
      "type": "function"
    },
    {
      "inputs": [
        {
          "internalType": "string",
          "name": "name",
          "type": "string"
        }
      ],
      "name": "getRecord",
      "outputs": [
        {
          "internalType": "string",
          "name": "",
          "type": "string"
        }
      ],
      "stateMutability": "view",
      "type": "function"
    },
    {
      "inputs": [
        {
          "internalType": "address",
          "name": "owner",
          "type": "address"
        },
        {
          "internalType": "address",
          "name": "operator",
          "type": "address"
        }
      ],
      "name": "isApprovedForAll",
      "outputs": [
        {
          "internalType": "bool",
          "name": "",
          "type": "bool"
        }
      ],
      "stateMutability": "view",
      "type": "function"
    },
    {
      "inputs": [],
      "name": "name",
      "outputs": [
        {
          "internalType": "string",
          "name": "",
          "type": "string"
        }
      ],
      "stateMutability": "view",
      "type": "function"
    },
    {
      "inputs": [
        {
          "internalType": "uint256",
          "name": "",
          "type": "uint256"
        }
      ],
      "name": "names",
      "outputs": [
        {
          "internalType": "string",
          "name": "",
          "type": "string"
        }
      ],
      "stateMutability": "view",
      "type": "function"
    },
    {
      "inputs": [],
      "name": "owner",
      "outputs": [
        {
          "internalType": "address",
          "name": "",
          "type": "address"
        }
      ],
      "stateMutability": "view",
      "type": "function"
    },
    {
      "inputs": [
        {
          "internalType": "uint256",
          "name": "tokenId",
          "type": "uint256"
        }
      ],
      "name": "ownerOf",
      "outputs": [
        {
          "internalType": "address",
          "name": "",
          "type": "address"
        }
      ],
      "stateMutability": "view",
      "type": "function"
    },
    {
      "inputs": [
        {
          "internalType": "string",
          "name": "",
          "type": "string"
        }
      ],
      "name": "records",
      "outputs": [
        {
          "internalType": "string",
          "name": "",
          "type": "string"
        }
      ],
      "stateMutability": "view",
      "type": "function"
    },
    {
      "inputs": [
        {
          "internalType": "string",
          "name": "name",
          "type": "string"
        }
      ],
      "name": "register",
      "outputs": [],
      "stateMutability": "payable",
      "type": "function"
    },
    {
      "inputs": [
        {
          "internalType": "address",
          "name": "from",
          "type": "address"
        },
        {
          "internalType": "address",
          "name": "to",
          "type": "address"
        },
        {
          "internalType": "uint256",
          "name": "tokenId",
          "type": "uint256"
        }
      ],
      "name": "safeTransferFrom",
      "outputs": [],
      "stateMutability": "nonpayable",
      "type": "function"
    },
    {
      "inputs": [
        {
          "internalType": "address",
          "name": "from",
          "type": "address"
        },
        {
          "internalType": "address",
          "name": "to",
          "type": "address"
        },
        {
          "internalType": "uint256",
          "name": "tokenId",
          "type": "uint256"
        },
        {
          "internalType": "bytes",
          "name": "_data",
          "type": "bytes"
        }
      ],
      "name": "safeTransferFrom",
      "outputs": [],
      "stateMutability": "nonpayable",
      "type": "function"
    },
    {
      "inputs": [
        {
          "internalType": "address",
          "name": "operator",
          "type": "address"
        },
        {
          "internalType": "bool",
          "name": "approved",
          "type": "bool"
        }
      ],
      "name": "setApprovalForAll",
      "outputs": [],
      "stateMutability": "nonpayable",
      "type": "function"
    },
    {
      "inputs": [
        {
          "internalType": "string",
          "name": "name",
          "type": "string"
        },
        {
          "internalType": "string",
          "name": "record",
          "type": "string"
        }
      ],
      "name": "setRecord",
      "outputs": [],
      "stateMutability": "nonpayable",
      "type": "function"
    },
    {
      "inputs": [
        {
          "internalType": "bytes4",
          "name": "interfaceId",
          "type": "bytes4"
        }
      ],
      "name": "supportsInterface",
      "outputs": [
        {
          "internalType": "bool",
          "name": "",
          "type": "bool"
        }
      ],
      "stateMutability": "view",
      "type": "function"
    },
    {
      "inputs": [],
      "name": "symbol",
      "outputs": [
        {
          "internalType": "string",
          "name": "",
          "type": "string"
        }
      ],
      "stateMutability": "view",
      "type": "function"
    },
    {
      "inputs": [],
      "name": "tld",
      "outputs": [
        {
          "internalType": "string",
          "name": "",
          "type": "string"
        }
      ],
      "stateMutability": "view",
      "type": "function"
    },
    {
      "inputs": [
        {
          "internalType": "uint256",
          "name": "tokenId",
          "type": "uint256"
        }
      ],
      "name": "tokenURI",
      "outputs": [
        {
          "internalType": "string",
          "name": "",
          "type": "string"
        }
      ],
      "stateMutability": "view",
      "type": "function"
    },
    {
      "inputs": [
        {
          "internalType": "address",
          "name": "from",
          "type": "address"
        },
        {
          "internalType": "address",
          "name": "to",
          "type": "address"
        },
        {
          "internalType": "uint256",
          "name": "tokenId",
          "type": "uint256"
        }
      ],
      "name": "transferFrom",
      "outputs": [],
      "stateMutability": "nonpayable",
      "type": "function"
    },
    {
      "inputs": [],
      "name": "withdraw",
      "outputs": [],
      "stateMutability": "nonpayable",
      "type": "function"
    }
  ],
  "bytecode": "0x6080604052604051806107a0016040528061076c8152602001620053e861076c9139600a908051906020019062000038929190620002c8565b506040518060400160405280600d81526020017f3c2f746578743e3c2f7376673e00000000000000000000000000000000000000815250600b908051906020019062000086929190620002c8565b5060405162005b5438038062005b548339818101604052810190620000ac919062000515565b6040518060400160405280601481526020017f5a65642052756e204e616d6520536572766963650000000000000000000000008152506040518060400160405280600381526020017f5a4e530000000000000000000000000000000000000000000000000000000000815250816000908051906020019062000130929190620002c8565b50806001908051906020019062000149929190620002c8565b50505033600860006101000a81548173ffffffffffffffffffffffffffffffffffffffff021916908373ffffffffffffffffffffffffffffffffffffffff1602179055508060099080519060200190620001a5929190620002c8565b50620001f26040518060400160405280601881526020017f2573206e616d652073657276696365206465706c6f796564000000000000000081525082620001f960201b62001b211760201c565b5062000663565b6200029b828260405160240162000212929190620005c3565b6040516020818303038152906040527f4b5c4277000000000000000000000000000000000000000000000000000000007bffffffffffffffffffffffffffffffffffffffffffffffffffffffff19166020820180517bffffffffffffffffffffffffffffffffffffffffffffffffffffffff83818316178352505050506200029f60201b60201c565b5050565b60008151905060006a636f6e736f6c652e6c6f679050602083016000808483855afa5050505050565b828054620002d6906200062d565b90600052602060002090601f016020900481019282620002fa576000855562000346565b82601f106200031557805160ff191683800117855562000346565b8280016001018555821562000346579182015b828111156200034557825182559160200191906001019062000328565b5b50905062000355919062000359565b5090565b5b80821115620003745760008160009055506001016200035a565b5090565b6000604051905090565b600080fd5b600080fd5b600080fd5b600080fd5b6000601f19601f8301169050919050565b7f4e487b7100000000000000000000000000000000000000000000000000000000600052604160045260246000fd5b620003e18262000396565b810181811067ffffffffffffffff82111715620004035762000402620003a7565b5b80604052505050565b60006200041862000378565b9050620004268282620003d6565b919050565b600067ffffffffffffffff821115620004495762000448620003a7565b5b620004548262000396565b9050602081019050919050565b60005b838110156200048157808201518184015260208101905062000464565b8381111562000491576000848401525b50505050565b6000620004ae620004a8846200042b565b6200040c565b905082815260208101848484011115620004cd57620004cc62000391565b5b620004da84828562000461565b509392505050565b600082601f830112620004fa57620004f96200038c565b5b81516200050c84826020860162000497565b91505092915050565b6000602082840312156200052e576200052d62000382565b5b600082015167ffffffffffffffff8111156200054f576200054e62000387565b5b6200055d84828501620004e2565b91505092915050565b600081519050919050565b600082825260208201905092915050565b60006200058f8262000566565b6200059b818562000571565b9350620005ad81856020860162000461565b620005b88162000396565b840191505092915050565b60006040820190508181036000830152620005df818562000582565b90508181036020830152620005f5818462000582565b90509392505050565b7f4e487b7100000000000000000000000000000000000000000000000000000000600052602260045260246000fd5b600060028204905060018216806200064657607f821691505b602082108114156200065d576200065c620005fe565b5b50919050565b614d7580620006736000396000f3fe6080604052600436106101665760003560e01c8063541e771d116100d1578063b88d4fde1161008a578063c87b56dd11610064578063c87b56dd14610586578063e985e9c5146105c3578063f2c298be14610600578063fb825e5f1461061c57610166565b8063b88d4fde146104f7578063bf40fac114610520578063c1880a981461055d57610166565b8063541e771d146103c15780636352211e146103fe57806370a082311461043b5780638da5cb5b1461047857806395d89b41146104a3578063a22cb465146104ce57610166565b80632644923511610123578063264492351461029f5780632d551432146102dc5780633ccfd60b1461030757806342842e0e1461031e5780634622ab0314610347578063524f38891461038457610166565b806301ffc9a71461016b57806306fdde03146101a8578063081812fc146101d3578063095ea7b31461021057806311dd88451461023957806323b872dd14610276575b600080fd5b34801561017757600080fd5b50610192600480360381019061018d9190613006565b610647565b60405161019f919061304e565b60405180910390f35b3480156101b457600080fd5b506101bd610729565b6040516101ca9190613102565b60405180910390f35b3480156101df57600080fd5b506101fa60048036038101906101f5919061315a565b6107bb565b60405161020791906131c8565b60405180910390f35b34801561021c57600080fd5b506102376004803603810190610232919061320f565b610840565b005b34801561024557600080fd5b50610260600480360381019061025b91906132b4565b610958565b60405161026d9190613102565b60405180910390f35b34801561028257600080fd5b5061029d60048036038101906102989190613301565b610a0b565b005b3480156102ab57600080fd5b506102c660048036038101906102c19190613484565b610a6b565b6040516102d391906131c8565b60405180910390f35b3480156102e857600080fd5b506102f1610ab4565b6040516102fe9190613102565b60405180910390f35b34801561031357600080fd5b5061031c610b42565b005b34801561032a57600080fd5b5061034560048036038101906103409190613301565b610c51565b005b34801561035357600080fd5b5061036e6004803603810190610369919061315a565b610c71565b60405161037b9190613102565b60405180910390f35b34801561039057600080fd5b506103ab60048036038101906103a691906132b4565b610d11565b6040516103b891906134dc565b60405180910390f35b3480156103cd57600080fd5b506103e860048036038101906103e39190613484565b610db7565b6040516103f59190613102565b60405180910390f35b34801561040a57600080fd5b506104256004803603810190610420919061315a565b610e6d565b60405161043291906131c8565b60405180910390f35b34801561044757600080fd5b50610462600480360381019061045d91906134f7565b610f1f565b60405161046f91906134dc565b60405180910390f35b34801561048457600080fd5b5061048d610fd7565b60405161049a91906131c8565b60405180910390f35b3480156104af57600080fd5b506104b8610ffd565b6040516104c59190613102565b60405180910390f35b3480156104da57600080fd5b506104f560048036038101906104f09190613550565b61108f565b005b34801561050357600080fd5b5061051e60048036038101906105199190613631565b6110a5565b005b34801561052c57600080fd5b50610547600480360381019061054291906132b4565b611107565b60405161055491906131c8565b60405180910390f35b34801561056957600080fd5b50610584600480360381019061057f91906136b4565b611152565b005b34801561059257600080fd5b506105ad60048036038101906105a8919061315a565b611236565b6040516105ba9190613102565b60405180910390f35b3480156105cf57600080fd5b506105ea60048036038101906105e59190613735565b611388565b6040516105f7919061304e565b60405180910390f35b61061a600480360381019061061591906132b4565b61141c565b005b34801561062857600080fd5b50610631611943565b60405161063e9190613881565b60405180910390f35b60007f80ac58cd000000000000000000000000000000000000000000000000000000007bffffffffffffffffffffffffffffffffffffffffffffffffffffffff1916827bffffffffffffffffffffffffffffffffffffffffffffffffffffffff1916148061071257507f5b5e139f000000000000000000000000000000000000000000000000000000007bffffffffffffffffffffffffffffffffffffffffffffffffffffffff1916827bffffffffffffffffffffffffffffffffffffffffffffffffffffffff1916145b80610722575061072182611bbd565b5b9050919050565b606060008054610738906138d2565b80601f0160208091040260200160405190810160405280929190818152602001828054610764906138d2565b80156107b15780601f10610786576101008083540402835291602001916107b1565b820191906000526020600020905b81548152906001019060200180831161079457829003601f168201915b5050505050905090565b60006107c682611c27565b610805576040517f08c379a00000000000000000000000000000000000000000000000000000000081526004016107fc90613976565b60405180910390fd5b6004600083815260200190815260200160002060009054906101000a900473ffffffffffffffffffffffffffffffffffffffff169050919050565b600061084b82610e6d565b90508073ffffffffffffffffffffffffffffffffffffffff168373ffffffffffffffffffffffffffffffffffffffff1614156108bc576040517f08c379a00000000000000000000000000000000000000000000000000000000081526004016108b390613a08565b60405180910390fd5b8073ffffffffffffffffffffffffffffffffffffffff166108db611c93565b73ffffffffffffffffffffffffffffffffffffffff16148061090a575061090981610904611c93565b611388565b5b610949576040517f08c379a000000000000000000000000000000000000000000000000000000000815260040161094090613a9a565b60405180910390fd5b6109538383611c9b565b505050565b6060600e838360405161096c929190613aea565b90815260200160405180910390208054610985906138d2565b80601f01602080910402602001604051908101604052809291908181526020018280546109b1906138d2565b80156109fe5780601f106109d3576101008083540402835291602001916109fe565b820191906000526020600020905b8154815290600101906020018083116109e157829003601f168201915b5050505050905092915050565b610a1c610a16611c93565b82611d54565b610a5b576040517f08c379a0000000000000000000000000000000000000000000000000000000008152600401610a5290613b75565b60405180910390fd5b610a66838383611e32565b505050565b600c818051602081018201805184825260208301602085012081835280955050505050506000915054906101000a900473ffffffffffffffffffffffffffffffffffffffff1681565b60098054610ac1906138d2565b80601f0160208091040260200160405190810160405280929190818152602001828054610aed906138d2565b8015610b3a5780601f10610b0f57610100808354040283529160200191610b3a565b820191906000526020600020905b815481529060010190602001808311610b1d57829003601f168201915b505050505081565b600860009054906101000a900473ffffffffffffffffffffffffffffffffffffffff1673ffffffffffffffffffffffffffffffffffffffff163373ffffffffffffffffffffffffffffffffffffffff1614610b9c57600080fd5b600047905060003373ffffffffffffffffffffffffffffffffffffffff1682604051610bc790613bc6565b60006040518083038185875af1925050503d8060008114610c04576040519150601f19603f3d011682016040523d82523d6000602084013e610c09565b606091505b5050905080610c4d576040517f08c379a0000000000000000000000000000000000000000000000000000000008152600401610c4490613c27565b60405180910390fd5b5050565b610c6c838383604051806020016040528060008152506110a5565b505050565b600d6020528060005260406000206000915090508054610c90906138d2565b80601f0160208091040260200160405190810160405280929190818152602001828054610cbc906138d2565b8015610d095780601f10610cde57610100808354040283529160200191610d09565b820191906000526020600020905b815481529060010190602001808311610cec57829003601f168201915b505050505081565b600080610d6184848080601f016020809104026020016040519081016040528093929190818152602001838380828437600081840152601f19601f82011690508083019250505050505050612099565b905060008111610d7057600080fd5b6003811415610d8a576706f05b59d3b20000915050610db1565b6004811415610da457670429d069189e0000915050610db1565b67016345785d8a00009150505b92915050565b600e818051602081018201805184825260208301602085012081835280955050505050506000915090508054610dec906138d2565b80601f0160208091040260200160405190810160405280929190818152602001828054610e18906138d2565b8015610e655780601f10610e3a57610100808354040283529160200191610e65565b820191906000526020600020905b815481529060010190602001808311610e4857829003601f168201915b505050505081565b6000806002600084815260200190815260200160002060009054906101000a900473ffffffffffffffffffffffffffffffffffffffff169050600073ffffffffffffffffffffffffffffffffffffffff168173ffffffffffffffffffffffffffffffffffffffff161415610f16576040517f08c379a0000000000000000000000000000000000000000000000000000000008152600401610f0d90613cb9565b60405180910390fd5b80915050919050565b60008073ffffffffffffffffffffffffffffffffffffffff168273ffffffffffffffffffffffffffffffffffffffff161415610f90576040517f08c379a0000000000000000000000000000000000000000000000000000000008152600401610f8790613d4b565b60405180910390fd5b600360008373ffffffffffffffffffffffffffffffffffffffff1673ffffffffffffffffffffffffffffffffffffffff168152602001908152602001600020549050919050565b600860009054906101000a900473ffffffffffffffffffffffffffffffffffffffff1681565b60606001805461100c906138d2565b80601f0160208091040260200160405190810160405280929190818152602001828054611038906138d2565b80156110855780601f1061105a57610100808354040283529160200191611085565b820191906000526020600020905b81548152906001019060200180831161106857829003601f168201915b5050505050905090565b6110a161109a611c93565b838361224e565b5050565b6110b66110b0611c93565b83611d54565b6110f5576040517f08c379a00000000000000000000000000000000000000000000000000000000081526004016110ec90613b75565b60405180910390fd5b611101848484846123bb565b50505050565b6000600c838360405161111b929190613aea565b908152602001604051809103902060009054906101000a900473ffffffffffffffffffffffffffffffffffffffff16905092915050565b3373ffffffffffffffffffffffffffffffffffffffff16600c858560405161117b929190613aea565b908152602001604051809103902060009054906101000a900473ffffffffffffffffffffffffffffffffffffffff1673ffffffffffffffffffffffffffffffffffffffff1614611200576040517f08c379a00000000000000000000000000000000000000000000000000000000081526004016111f790613ddd565b60405180910390fd5b8181600e8686604051611214929190613aea565b9081526020016040518091039020919061122f929190612e71565b5050505050565b606061124182611c27565b611280576040517f08c379a000000000000000000000000000000000000000000000000000000000815260040161127790613e6f565b60405180910390fd5b60006006600084815260200190815260200160002080546112a0906138d2565b80601f01602080910402602001604051908101604052809291908181526020018280546112cc906138d2565b80156113195780601f106112ee57610100808354040283529160200191611319565b820191906000526020600020905b8154815290600101906020018083116112fc57829003601f168201915b50505050509050600061132a612417565b9050600081511415611340578192505050611383565b60008251111561137557808260405160200161135d929190613ec0565b60405160208183030381529060405292505050611383565b61137e8461242e565b925050505b919050565b6000600560008473ffffffffffffffffffffffffffffffffffffffff1673ffffffffffffffffffffffffffffffffffffffff16815260200190815260200160002060008373ffffffffffffffffffffffffffffffffffffffff1673ffffffffffffffffffffffffffffffffffffffff16815260200190815260200160002060009054906101000a900460ff16905092915050565b8181600361146d83838080601f016020809104026020016040519081016040528093929190818152602001838380828437600081840152601f19601f82011690508083019250505050505050612099565b101580156114c85750600a6114c583838080601f016020809104026020016040519081016040528093929190818152602001838380828437600081840152601f19601f82011690508083019250505050505050612099565b11155b611507576040517f08c379a00000000000000000000000000000000000000000000000000000000081526004016114fe90613f56565b60405180910390fd5b600073ffffffffffffffffffffffffffffffffffffffff16600c8585604051611531929190613aea565b908152602001604051809103902060009054906101000a900473ffffffffffffffffffffffffffffffffffffffff1673ffffffffffffffffffffffffffffffffffffffff16146115b6576040517f08c379a00000000000000000000000000000000000000000000000000000000081526004016115ad90613fc2565b60405180910390fd5b60006115c28585610d11565b905080341015611607576040517f08c379a00000000000000000000000000000000000000000000000000000000081526004016115fe9061402e565b60405180910390fd5b60008585600960405160200161161f9392919061412e565b60405160208183030381529060405290506000600a82600b6040516020016116499392919061415f565b6040516020818303038152906040529050600061166660076124d5565b905060006116b789898080601f016020809104026020016040519081016040528093929190818152602001838380828437600081840152601f19601f82011690508083019250505050505050612099565b905060006116c4826124e3565b90506117b8604051806060016040528060318152602001614c96603191398b8b8080601f016020809104026020016040519081016040528093929190818152602001838380828437600081840152601f19601f8201169050808301925050505050505060098054611734906138d2565b80601f0160208091040260200160405190810160405280929190818152602001828054611760906138d2565b80156117ad5780601f10611782576101008083540402835291602001916117ad565b820191906000526020600020905b81548152906001019060200180831161179057829003601f168201915b505050505086612644565b60006117ee866117c7876126e6565b846040516020016117da9392919061430c565b6040516020818303038152906040526126e6565b905060008160405160200161180391906143b5565b6040516020818303038152906040529050611835604051806060016040528060398152602001614c5d6039913961287e565b6118746040518060400160405280600e81526020017f46696e616c20746f6b656e55524900000000000000000000000000000000000081525082611b21565b611895604051806060016040528060398152602001614cc76039913961287e565b61189f3386612917565b6118a98582612935565b33600c8d8d6040516118bc929190613aea565b908152602001604051809103902060006101000a81548173ffffffffffffffffffffffffffffffffffffffff021916908373ffffffffffffffffffffffffffffffffffffffff1602179055508b8b600d6000888152602001908152602001600020919061192a929190612e71565b5061193560076129a9565b505050505050505050505050565b60606119836040518060400160405280601f81526020017f47657474696e6720616c6c206e616d65732066726f6d20636f6e74726163740081525061287e565b600061198f60076124d5565b67ffffffffffffffff8111156119a8576119a7613359565b5b6040519080825280602002602001820160405280156119db57816020015b60608152602001906001900390816119c65790505b50905060005b6119eb60076124d5565b811015611b1957600d60008281526020019081526020016000208054611a10906138d2565b80601f0160208091040260200160405190810160405280929190818152602001828054611a3c906138d2565b8015611a895780601f10611a5e57610100808354040283529160200191611a89565b820191906000526020600020905b815481529060010190602001808311611a6c57829003601f168201915b5050505050828281518110611aa157611aa06143d7565b5b6020026020010181905250611b066040518060400160405280601781526020017f4e616d6520666f7220746f6b656e20256420697320257300000000000000000081525082848481518110611af957611af86143d7565b5b60200260200101516129bf565b8080611b1190614435565b9150506119e1565b508091505090565b611bb98282604051602401611b3792919061447e565b6040516020818303038152906040527f4b5c4277000000000000000000000000000000000000000000000000000000007bffffffffffffffffffffffffffffffffffffffffffffffffffffffff19166020820180517bffffffffffffffffffffffffffffffffffffffffffffffffffffffff8381831617835250505050612a5e565b5050565b60007f01ffc9a7000000000000000000000000000000000000000000000000000000007bffffffffffffffffffffffffffffffffffffffffffffffffffffffff1916827bffffffffffffffffffffffffffffffffffffffffffffffffffffffff1916149050919050565b60008073ffffffffffffffffffffffffffffffffffffffff166002600084815260200190815260200160002060009054906101000a900473ffffffffffffffffffffffffffffffffffffffff1673ffffffffffffffffffffffffffffffffffffffff1614159050919050565b600033905090565b816004600083815260200190815260200160002060006101000a81548173ffffffffffffffffffffffffffffffffffffffff021916908373ffffffffffffffffffffffffffffffffffffffff160217905550808273ffffffffffffffffffffffffffffffffffffffff16611d0e83610e6d565b73ffffffffffffffffffffffffffffffffffffffff167f8c5be1e5ebec7d5bd14f71427d1e84f3dd0314c0f7b2291e5b200ac8c7c3b92560405160405180910390a45050565b6000611d5f82611c27565b611d9e576040517f08c379a0000000000000000000000000000000000000000000000000000000008152600401611d9590614527565b60405180910390fd5b6000611da983610e6d565b90508073ffffffffffffffffffffffffffffffffffffffff168473ffffffffffffffffffffffffffffffffffffffff161480611e1857508373ffffffffffffffffffffffffffffffffffffffff16611e00846107bb565b73ffffffffffffffffffffffffffffffffffffffff16145b80611e295750611e288185611388565b5b91505092915050565b8273ffffffffffffffffffffffffffffffffffffffff16611e5282610e6d565b73ffffffffffffffffffffffffffffffffffffffff1614611ea8576040517f08c379a0000000000000000000000000000000000000000000000000000000008152600401611e9f906145b9565b60405180910390fd5b600073ffffffffffffffffffffffffffffffffffffffff168273ffffffffffffffffffffffffffffffffffffffff161415611f18576040517f08c379a0000000000000000000000000000000000000000000000000000000008152600401611f0f9061464b565b60405180910390fd5b611f23838383612a87565b611f2e600082611c9b565b6001600360008573ffffffffffffffffffffffffffffffffffffffff1673ffffffffffffffffffffffffffffffffffffffff1681526020019081526020016000206000828254611f7e919061466b565b925050819055506001600360008473ffffffffffffffffffffffffffffffffffffffff1673ffffffffffffffffffffffffffffffffffffffff1681526020019081526020016000206000828254611fd5919061469f565b92505081905550816002600083815260200190815260200160002060006101000a81548173ffffffffffffffffffffffffffffffffffffffff021916908373ffffffffffffffffffffffffffffffffffffffff160217905550808273ffffffffffffffffffffffffffffffffffffffff168473ffffffffffffffffffffffffffffffffffffffff167fddf252ad1be2c89b69c2b068fc378daa952ba7f163c4a11628f55a4df523b3ef60405160405180910390a4612094838383612a8c565b505050565b60008060008084519050600092505b808210156122435760008583815181106120c5576120c46143d7565b5b602001015160f81c60f81b9050608060f81b817effffffffffffffffffffffffffffffffffffffffffffffffffffffffffffff191610156121145760018361210d919061469f565b925061222f565b60e060f81b817effffffffffffffffffffffffffffffffffffffffffffffffffffffffffffff191610156121565760028361214f919061469f565b925061222e565b60f060f81b817effffffffffffffffffffffffffffffffffffffffffffffffffffffffffffff1916101561219857600383612191919061469f565b925061222d565b60f8801b817effffffffffffffffffffffffffffffffffffffffffffffffffffffffffffff191610156121d9576004836121d2919061469f565b925061222c565b60fc60f81b817effffffffffffffffffffffffffffffffffffffffffffffffffffffffffffff1916101561221b57600583612214919061469f565b925061222b565b600683612228919061469f565b92505b5b5b5b5b50828061223b90614435565b9350506120a8565b829350505050919050565b8173ffffffffffffffffffffffffffffffffffffffff168373ffffffffffffffffffffffffffffffffffffffff1614156122bd576040517f08c379a00000000000000000000000000000000000000000000000000000000081526004016122b490614741565b60405180910390fd5b80600560008573ffffffffffffffffffffffffffffffffffffffff1673ffffffffffffffffffffffffffffffffffffffff16815260200190815260200160002060008473ffffffffffffffffffffffffffffffffffffffff1673ffffffffffffffffffffffffffffffffffffffff16815260200190815260200160002060006101000a81548160ff0219169083151502179055508173ffffffffffffffffffffffffffffffffffffffff168373ffffffffffffffffffffffffffffffffffffffff167f17307eab39ab6107e8899845ad3d59bd9653f200f220920489ca2b5937696c31836040516123ae919061304e565b60405180910390a3505050565b6123c6848484611e32565b6123d284848484612a91565b612411576040517f08c379a0000000000000000000000000000000000000000000000000000000008152600401612408906147d3565b60405180910390fd5b50505050565b606060405180602001604052806000815250905090565b606061243982611c27565b612478576040517f08c379a000000000000000000000000000000000000000000000000000000000815260040161246f90614865565b60405180910390fd5b6000612482612417565b905060008151116124a257604051806020016040528060008152506124cd565b806124ac846124e3565b6040516020016124bd929190613ec0565b6040516020818303038152906040525b915050919050565b600081600001549050919050565b6060600082141561252b576040518060400160405280600181526020017f3000000000000000000000000000000000000000000000000000000000000000815250905061263f565b600082905060005b6000821461255d57808061254690614435565b915050600a8261255691906148b4565b9150612533565b60008167ffffffffffffffff81111561257957612578613359565b5b6040519080825280601f01601f1916602001820160405280156125ab5781602001600182028036833780820191505090505b5090505b60008514612638576001826125c4919061466b565b9150600a856125d391906148e5565b60306125df919061469f565b60f81b8183815181106125f5576125f46143d7565b5b60200101907effffffffffffffffffffffffffffffffffffffffffffffffffffffffffffff1916908160001a905350600a8561263191906148b4565b94506125af565b8093505050505b919050565b6126e08484848460405160240161265e9493929190614916565b6040516020818303038152906040527f9fd009f5000000000000000000000000000000000000000000000000000000007bffffffffffffffffffffffffffffffffffffffffffffffffffffffff19166020820180517bffffffffffffffffffffffffffffffffffffffffffffffffffffffff8381831617835250505050612a5e565b50505050565b6060600082519050600081141561270f5760405180602001604052806000815250915050612879565b60006003600283612720919061469f565b61272a91906148b4565b60046127369190614970565b90506000602082612747919061469f565b67ffffffffffffffff8111156127605761275f613359565b5b6040519080825280601f01601f1916602001820160405280156127925781602001600182028036833780820191505090505b5090506000604051806060016040528060408152602001614d00604091399050600181016020830160005b868110156128365760038101905062ffffff818a015116603f8160121c168401518060081b905060ff603f83600c1c1686015116810190508060081b905060ff603f8360061c1686015116810190508060081b905060ff603f831686015116810190508060e01b905080845260048401935050506127bd565b50600386066001811461285057600281146128605761286b565b613d3d60f01b600283035261286b565b603d60f81b60018303525b508484525050819450505050505b919050565b612914816040516024016128929190613102565b6040516020818303038152906040527f41304fac000000000000000000000000000000000000000000000000000000007bffffffffffffffffffffffffffffffffffffffffffffffffffffffff19166020820180517bffffffffffffffffffffffffffffffffffffffffffffffffffffffff8381831617835250505050612a5e565b50565b612931828260405180602001604052806000815250612c19565b5050565b61293e82611c27565b61297d576040517f08c379a000000000000000000000000000000000000000000000000000000000815260040161297490614a3c565b60405180910390fd5b806006600084815260200190815260200160002090805190602001906129a4929190612ef7565b505050565b6001816000016000828254019250508190555050565b612a598383836040516024016129d793929190614a5c565b6040516020818303038152906040527fa3f5c739000000000000000000000000000000000000000000000000000000007bffffffffffffffffffffffffffffffffffffffffffffffffffffffff19166020820180517bffffffffffffffffffffffffffffffffffffffffffffffffffffffff8381831617835250505050612a5e565b505050565b60008151905060006a636f6e736f6c652e6c6f679050602083016000808483855afa5050505050565b505050565b505050565b6000612ab28473ffffffffffffffffffffffffffffffffffffffff16612c74565b15612c0c578373ffffffffffffffffffffffffffffffffffffffff1663150b7a02612adb611c93565b8786866040518563ffffffff1660e01b8152600401612afd9493929190614af6565b6020604051808303816000875af1925050508015612b3957506040513d601f19601f82011682018060405250810190612b369190614b57565b60015b612bbc573d8060008114612b69576040519150601f19603f3d011682016040523d82523d6000602084013e612b6e565b606091505b50600081511415612bb4576040517f08c379a0000000000000000000000000000000000000000000000000000000008152600401612bab906147d3565b60405180910390fd5b805181602001fd5b63150b7a0260e01b7bffffffffffffffffffffffffffffffffffffffffffffffffffffffff1916817bffffffffffffffffffffffffffffffffffffffffffffffffffffffff191614915050612c11565b600190505b949350505050565b612c238383612c97565b612c306000848484612a91565b612c6f576040517f08c379a0000000000000000000000000000000000000000000000000000000008152600401612c66906147d3565b60405180910390fd5b505050565b6000808273ffffffffffffffffffffffffffffffffffffffff163b119050919050565b600073ffffffffffffffffffffffffffffffffffffffff168273ffffffffffffffffffffffffffffffffffffffff161415612d07576040517f08c379a0000000000000000000000000000000000000000000000000000000008152600401612cfe90614bd0565b60405180910390fd5b612d1081611c27565b15612d50576040517f08c379a0000000000000000000000000000000000000000000000000000000008152600401612d4790614c3c565b60405180910390fd5b612d5c60008383612a87565b6001600360008473ffffffffffffffffffffffffffffffffffffffff1673ffffffffffffffffffffffffffffffffffffffff1681526020019081526020016000206000828254612dac919061469f565b92505081905550816002600083815260200190815260200160002060006101000a81548173ffffffffffffffffffffffffffffffffffffffff021916908373ffffffffffffffffffffffffffffffffffffffff160217905550808273ffffffffffffffffffffffffffffffffffffffff16600073ffffffffffffffffffffffffffffffffffffffff167fddf252ad1be2c89b69c2b068fc378daa952ba7f163c4a11628f55a4df523b3ef60405160405180910390a4612e6d60008383612a8c565b5050565b828054612e7d906138d2565b90600052602060002090601f016020900481019282612e9f5760008555612ee6565b82601f10612eb857803560ff1916838001178555612ee6565b82800160010185558215612ee6579182015b82811115612ee5578235825591602001919060010190612eca565b5b509050612ef39190612f7d565b5090565b828054612f03906138d2565b90600052602060002090601f016020900481019282612f255760008555612f6c565b82601f10612f3e57805160ff1916838001178555612f6c565b82800160010185558215612f6c579182015b82811115612f6b578251825591602001919060010190612f50565b5b509050612f799190612f7d565b5090565b5b80821115612f96576000816000905550600101612f7e565b5090565b6000604051905090565b600080fd5b600080fd5b60007fffffffff0000000000000000000000000000000000000000000000000000000082169050919050565b612fe381612fae565b8114612fee57600080fd5b50565b60008135905061300081612fda565b92915050565b60006020828403121561301c5761301b612fa4565b5b600061302a84828501612ff1565b91505092915050565b60008115159050919050565b61304881613033565b82525050565b6000602082019050613063600083018461303f565b92915050565b600081519050919050565b600082825260208201905092915050565b60005b838110156130a3578082015181840152602081019050613088565b838111156130b2576000848401525b50505050565b6000601f19601f8301169050919050565b60006130d482613069565b6130de8185613074565b93506130ee818560208601613085565b6130f7816130b8565b840191505092915050565b6000602082019050818103600083015261311c81846130c9565b905092915050565b6000819050919050565b61313781613124565b811461314257600080fd5b50565b6000813590506131548161312e565b92915050565b6000602082840312156131705761316f612fa4565b5b600061317e84828501613145565b91505092915050565b600073ffffffffffffffffffffffffffffffffffffffff82169050919050565b60006131b282613187565b9050919050565b6131c2816131a7565b82525050565b60006020820190506131dd60008301846131b9565b92915050565b6131ec816131a7565b81146131f757600080fd5b50565b600081359050613209816131e3565b92915050565b6000806040838503121561322657613225612fa4565b5b6000613234858286016131fa565b925050602061324585828601613145565b9150509250929050565b600080fd5b600080fd5b600080fd5b60008083601f8401126132745761327361324f565b5b8235905067ffffffffffffffff81111561329157613290613254565b5b6020830191508360018202830111156132ad576132ac613259565b5b9250929050565b600080602083850312156132cb576132ca612fa4565b5b600083013567ffffffffffffffff8111156132e9576132e8612fa9565b5b6132f58582860161325e565b92509250509250929050565b60008060006060848603121561331a57613319612fa4565b5b6000613328868287016131fa565b9350506020613339868287016131fa565b925050604061334a86828701613145565b9150509250925092565b600080fd5b7f4e487b7100000000000000000000000000000000000000000000000000000000600052604160045260246000fd5b613391826130b8565b810181811067ffffffffffffffff821117156133b0576133af613359565b5b80604052505050565b60006133c3612f9a565b90506133cf8282613388565b919050565b600067ffffffffffffffff8211156133ef576133ee613359565b5b6133f8826130b8565b9050602081019050919050565b82818337600083830152505050565b6000613427613422846133d4565b6133b9565b90508281526020810184848401111561344357613442613354565b5b61344e848285613405565b509392505050565b600082601f83011261346b5761346a61324f565b5b813561347b848260208601613414565b91505092915050565b60006020828403121561349a57613499612fa4565b5b600082013567ffffffffffffffff8111156134b8576134b7612fa9565b5b6134c484828501613456565b91505092915050565b6134d681613124565b82525050565b60006020820190506134f160008301846134cd565b92915050565b60006020828403121561350d5761350c612fa4565b5b600061351b848285016131fa565b91505092915050565b61352d81613033565b811461353857600080fd5b50565b60008135905061354a81613524565b92915050565b6000806040838503121561356757613566612fa4565b5b6000613575858286016131fa565b92505060206135868582860161353b565b9150509250929050565b600067ffffffffffffffff8211156135ab576135aa613359565b5b6135b4826130b8565b9050602081019050919050565b60006135d46135cf84613590565b6133b9565b9050828152602081018484840111156135f0576135ef613354565b5b6135fb848285613405565b509392505050565b600082601f8301126136185761361761324f565b5b81356136288482602086016135c1565b91505092915050565b6000806000806080858703121561364b5761364a612fa4565b5b6000613659878288016131fa565b945050602061366a878288016131fa565b935050604061367b87828801613145565b925050606085013567ffffffffffffffff81111561369c5761369b612fa9565b5b6136a887828801613603565b91505092959194509250565b600080600080604085870312156136ce576136cd612fa4565b5b600085013567ffffffffffffffff8111156136ec576136eb612fa9565b5b6136f88782880161325e565b9450945050602085013567ffffffffffffffff81111561371b5761371a612fa9565b5b6137278782880161325e565b925092505092959194509250565b6000806040838503121561374c5761374b612fa4565b5b600061375a858286016131fa565b925050602061376b858286016131fa565b9150509250929050565b600081519050919050565b600082825260208201905092915050565b6000819050602082019050919050565b600082825260208201905092915050565b60006137bd82613069565b6137c781856137a1565b93506137d7818560208601613085565b6137e0816130b8565b840191505092915050565b60006137f783836137b2565b905092915050565b6000602082019050919050565b600061381782613775565b6138218185613780565b93508360208202850161383385613791565b8060005b8581101561386f578484038952815161385085826137eb565b945061385b836137ff565b925060208a01995050600181019050613837565b50829750879550505050505092915050565b6000602082019050818103600083015261389b818461380c565b905092915050565b7f4e487b7100000000000000000000000000000000000000000000000000000000600052602260045260246000fd5b600060028204905060018216806138ea57607f821691505b602082108114156138fe576138fd6138a3565b5b50919050565b7f4552433732313a20617070726f76656420717565727920666f72206e6f6e657860008201527f697374656e7420746f6b656e0000000000000000000000000000000000000000602082015250565b6000613960602c83613074565b915061396b82613904565b604082019050919050565b6000602082019050818103600083015261398f81613953565b9050919050565b7f4552433732313a20617070726f76616c20746f2063757272656e74206f776e6560008201527f7200000000000000000000000000000000000000000000000000000000000000602082015250565b60006139f2602183613074565b91506139fd82613996565b604082019050919050565b60006020820190508181036000830152613a21816139e5565b9050919050565b7f4552433732313a20617070726f76652063616c6c6572206973206e6f74206f7760008201527f6e6572206e6f7220617070726f76656420666f7220616c6c0000000000000000602082015250565b6000613a84603883613074565b9150613a8f82613a28565b604082019050919050565b60006020820190508181036000830152613ab381613a77565b9050919050565b600081905092915050565b6000613ad18385613aba565b9350613ade838584613405565b82840190509392505050565b6000613af7828486613ac5565b91508190509392505050565b7f4552433732313a207472616e736665722063616c6c6572206973206e6f74206f60008201527f776e6572206e6f7220617070726f766564000000000000000000000000000000602082015250565b6000613b5f603183613074565b9150613b6a82613b03565b604082019050919050565b60006020820190508181036000830152613b8e81613b52565b9050919050565b600081905092915050565b50565b6000613bb0600083613b95565b9150613bbb82613ba0565b600082019050919050565b6000613bd182613ba3565b9150819050919050565b7f4661696c656420746f207769746864726177204d617469630000000000000000600082015250565b6000613c11601883613074565b9150613c1c82613bdb565b602082019050919050565b60006020820190508181036000830152613c4081613c04565b9050919050565b7f4552433732313a206f776e657220717565727920666f72206e6f6e657869737460008201527f656e7420746f6b656e0000000000000000000000000000000000000000000000602082015250565b6000613ca3602983613074565b9150613cae82613c47565b604082019050919050565b60006020820190508181036000830152613cd281613c96565b9050919050565b7f4552433732313a2062616c616e636520717565727920666f7220746865207a6560008201527f726f206164647265737300000000000000000000000000000000000000000000602082015250565b6000613d35602a83613074565b9150613d4082613cd9565b604082019050919050565b60006020820190508181036000830152613d6481613d28565b9050919050565b7f4f6e6c7920746865206f776e6572206f662074686520646f6d61696e2063616e60008201527f207365742061207265636f726400000000000000000000000000000000000000602082015250565b6000613dc7602d83613074565b9150613dd282613d6b565b604082019050919050565b60006020820190508181036000830152613df681613dba565b9050919050565b7f45524337323155524953746f726167653a2055524920717565727920666f722060008201527f6e6f6e6578697374656e7420746f6b656e000000000000000000000000000000602082015250565b6000613e59603183613074565b9150613e6482613dfd565b604082019050919050565b60006020820190508181036000830152613e8881613e4c565b9050919050565b6000613e9a82613069565b613ea48185613aba565b9350613eb4818560208601613085565b80840191505092915050565b6000613ecc8285613e8f565b9150613ed88284613e8f565b91508190509392505050565b7f4e616d65732063616e2068617665206265747765656e203320616e642031302060008201527f6368617273000000000000000000000000000000000000000000000000000000602082015250565b6000613f40602583613074565b9150613f4b82613ee4565b604082019050919050565b60006020820190508181036000830152613f6f81613f33565b9050919050565b7f4e616d6520697320616c726561647920696e2075736500000000000000000000600082015250565b6000613fac601683613074565b9150613fb782613f76565b602082019050919050565b60006020820190508181036000830152613fdb81613f9f565b9050919050565b7f4e6f7420656e6f756768204d4154494320706169640000000000000000000000600082015250565b6000614018601583613074565b915061402382613fe2565b602082019050919050565b600060208201905081810360008301526140478161400b565b9050919050565b7f2e00000000000000000000000000000000000000000000000000000000000000600082015250565b6000614084600183613aba565b915061408f8261404e565b600182019050919050565b60008190508160005260206000209050919050565b600081546140bc816138d2565b6140c68186613aba565b945060018216600081146140e157600181146140f257614125565b60ff19831686528186019350614125565b6140fb8561409a565b60005b8381101561411d578154818901526001820191506020810190506140fe565b838801955050505b50505092915050565b600061413b828587613ac5565b915061414682614077565b915061415282846140af565b9150819050949350505050565b600061416b82866140af565b91506141778285613e8f565b915061418382846140af565b9150819050949350505050565b7f7b226e616d65223a202200000000000000000000000000000000000000000000600082015250565b60006141c6600a83613aba565b91506141d182614190565b600a82019050919050565b7f222c20226465736372697074696f6e223a20224120646f6d61696e206f6e207460008201527f6865204e696e6a61206e616d652073657276696365222c2022696d616765223a60208201527f2022646174613a696d6167652f7376672b786d6c3b6261736536342c00000000604082015250565b600061425e605c83613aba565b9150614269826141dc565b605c82019050919050565b7f222c226c656e677468223a220000000000000000000000000000000000000000600082015250565b60006142aa600c83613aba565b91506142b582614274565b600c82019050919050565b7f227d000000000000000000000000000000000000000000000000000000000000600082015250565b60006142f6600283613aba565b9150614301826142c0565b600282019050919050565b6000614317826141b9565b91506143238286613e8f565b915061432e82614251565b915061433a8285613e8f565b91506143458261429d565b91506143518284613e8f565b915061435c826142e9565b9150819050949350505050565b7f646174613a6170706c69636174696f6e2f6a736f6e3b6261736536342c000000600082015250565b600061439f601d83613aba565b91506143aa82614369565b601d82019050919050565b60006143c082614392565b91506143cc8284613e8f565b915081905092915050565b7f4e487b7100000000000000000000000000000000000000000000000000000000600052603260045260246000fd5b7f4e487b7100000000000000000000000000000000000000000000000000000000600052601160045260246000fd5b600061444082613124565b91507fffffffffffffffffffffffffffffffffffffffffffffffffffffffffffffffff82141561447357614472614406565b5b600182019050919050565b6000604082019050818103600083015261449881856130c9565b905081810360208301526144ac81846130c9565b90509392505050565b7f4552433732313a206f70657261746f7220717565727920666f72206e6f6e657860008201527f697374656e7420746f6b656e0000000000000000000000000000000000000000602082015250565b6000614511602c83613074565b915061451c826144b5565b604082019050919050565b6000602082019050818103600083015261454081614504565b9050919050565b7f4552433732313a207472616e736665722066726f6d20696e636f72726563742060008201527f6f776e6572000000000000000000000000000000000000000000000000000000602082015250565b60006145a3602583613074565b91506145ae82614547565b604082019050919050565b600060208201905081810360008301526145d281614596565b9050919050565b7f4552433732313a207472616e7366657220746f20746865207a65726f2061646460008201527f7265737300000000000000000000000000000000000000000000000000000000602082015250565b6000614635602483613074565b9150614640826145d9565b604082019050919050565b6000602082019050818103600083015261466481614628565b9050919050565b600061467682613124565b915061468183613124565b92508282101561469457614693614406565b5b828203905092915050565b60006146aa82613124565b91506146b583613124565b9250827fffffffffffffffffffffffffffffffffffffffffffffffffffffffffffffffff038211156146ea576146e9614406565b5b828201905092915050565b7f4552433732313a20617070726f766520746f2063616c6c657200000000000000600082015250565b600061472b601983613074565b9150614736826146f5565b602082019050919050565b6000602082019050818103600083015261475a8161471e565b9050919050565b7f4552433732313a207472616e7366657220746f206e6f6e20455243373231526560008201527f63656976657220696d706c656d656e7465720000000000000000000000000000602082015250565b60006147bd603283613074565b91506147c882614761565b604082019050919050565b600060208201905081810360008301526147ec816147b0565b9050919050565b7f4552433732314d657461646174613a2055524920717565727920666f72206e6f60008201527f6e6578697374656e7420746f6b656e0000000000000000000000000000000000602082015250565b600061484f602f83613074565b915061485a826147f3565b604082019050919050565b6000602082019050818103600083015261487e81614842565b9050919050565b7f4e487b7100000000000000000000000000000000000000000000000000000000600052601260045260246000fd5b60006148bf82613124565b91506148ca83613124565b9250826148da576148d9614885565b5b828204905092915050565b60006148f082613124565b91506148fb83613124565b92508261490b5761490a614885565b5b828206905092915050565b6000608082019050818103600083015261493081876130c9565b9050818103602083015261494481866130c9565b9050818103604083015261495881856130c9565b905061496760608301846134cd565b95945050505050565b600061497b82613124565b915061498683613124565b9250817fffffffffffffffffffffffffffffffffffffffffffffffffffffffffffffffff04831182151516156149bf576149be614406565b5b828202905092915050565b7f45524337323155524953746f726167653a2055524920736574206f66206e6f6e60008201527f6578697374656e7420746f6b656e000000000000000000000000000000000000602082015250565b6000614a26602e83613074565b9150614a31826149ca565b604082019050919050565b60006020820190508181036000830152614a5581614a19565b9050919050565b60006060820190508181036000830152614a7681866130c9565b9050614a8560208301856134cd565b8181036040830152614a9781846130c9565b9050949350505050565b600081519050919050565b600082825260208201905092915050565b6000614ac882614aa1565b614ad28185614aac565b9350614ae2818560208601613085565b614aeb816130b8565b840191505092915050565b6000608082019050614b0b60008301876131b9565b614b1860208301866131b9565b614b2560408301856134cd565b8181036060830152614b378184614abd565b905095945050505050565b600081519050614b5181612fda565b92915050565b600060208284031215614b6d57614b6c612fa4565b5b6000614b7b84828501614b42565b91505092915050565b7f4552433732313a206d696e7420746f20746865207a65726f2061646472657373600082015250565b6000614bba602083613074565b9150614bc582614b84565b602082019050919050565b60006020820190508181036000830152614be981614bad565b9050919050565b7f4552433732313a20746f6b656e20616c7265616479206d696e74656400000000600082015250565b6000614c26601c83613074565b9150614c3182614bf0565b602082019050919050565b60006020820190508181036000830152614c5581614c19565b905091905056fe0a2d2d2d2d2d2d2d2d2d2d2d2d2d2d2d2d2d2d2d2d2d2d2d2d2d2d2d2d2d2d2d2d2d2d2d2d2d2d2d2d2d2d2d2d2d2d2d2d2d2d2d2d2d2d2d2d5265676973746572696e672025732e2573206f6e2074686520636f6e7472616374207769746820746f6b656e49442025642d2d2d2d2d2d2d2d2d2d2d2d2d2d2d2d2d2d2d2d2d2d2d2d2d2d2d2d2d2d2d2d2d2d2d2d2d2d2d2d2d2d2d2d2d2d2d2d2d2d2d2d2d2d2d2d0a4142434445464748494a4b4c4d4e4f505152535455565758595a6162636465666768696a6b6c6d6e6f707172737475767778797a303132333435363738392b2fa2646970667358221220f34ae7380f9822c278ead0324dee89e34ba7d535e8d05183ad425e34b68f48ba64736f6c634300080a00333c73766720786d6c6e733d22687474703a2f2f7777772e77332e6f72672f323030302f737667222077696474683d2232373022206865696768743d22323730222066696c6c3d226e6f6e65223e3c706174682066696c6c3d2275726c282361292220643d224d302030683237307632373048307a222f3e3c646566733e3c66696c7465722069643d22622220636f6c6f722d696e746572706f6c6174696f6e2d66696c746572733d2273524742222066696c746572556e6974733d227573657253706163654f6e55736522206865696768743d22323730222077696474683d22323730223e3c666544726f70536861646f772064783d2230222064793d22312220737464446576696174696f6e3d22322220666c6f6f642d6f7061636974793d222e323235222077696474683d223230302522206865696768743d2232303025222f3e3c2f66696c7465723e3c2f646566733e3c7061746820643d224d37322e3836332034322e39343961342e33383220342e3338322030203020302d342e33393420306c2d31302e30383120362e3033322d362e383520332e3933342d31302e30383120362e30333261342e33383220342e3338322030203020312d342e33393420306c2d382e3031332d342e37323161342e353220342e35322030203020312d312e3538392d312e36313620342e353420342e35342030203020312d2e3630382d322e313837762d392e333161342e323720342e3237203020302031202e3537322d322e32303820342e323520342e323520302030203120312e3632352d312e3539356c372e3838342d342e353961342e33383220342e33383220302030203120342e33393420306c372e38383420342e353961342e353220342e353220302030203120312e35383920312e36313620342e353420342e3534203020302031202e36303820322e31383776362e3033326c362e38352d342e303635762d362e30333261342e323720342e32372030203020302d2e3537322d322e32303820342e323520342e32352030203020302d312e3632352d312e3539354c34312e3435362032342e353961342e33383220342e3338322030203020302d342e33393420306c2d31342e38363420382e36353561342e323520342e32352030203020302d312e36323520312e35393520342e32373320342e3237332030203020302d2e35373220322e3230387631372e34343161342e323720342e3237203020302030202e35373220322e32303820342e323520342e323520302030203020312e36323520312e3539356c31342e38363420382e36353561342e33383220342e33383220302030203020342e33393420306c31302e3038312d352e39303120362e38352d342e3036352031302e3038312d352e39303161342e33383220342e33383220302030203120342e33393420306c372e38383420342e353961342e353220342e353220302030203120312e35383920312e36313620342e353420342e3534203020302031202e36303820322e31383776392e33313161342e323720342e32372030203020312d2e35373220322e32303820342e323520342e32352030203020312d312e36323520312e3539356c2d372e38383420342e37323161342e33383220342e3338322030203020312d342e33393420306c2d372e3838342d342e353961342e353220342e35322030203020312d312e3538392d312e36313620342e353320342e35332030203020312d2e3630382d322e313837762d362e3033326c2d362e383520342e30363576362e30333261342e323720342e3237203020302030202e35373220322e32303820342e323520342e323520302030203020312e36323520312e3539356c31342e38363420382e36353561342e33383220342e33383220302030203020342e33393420306c31342e3836342d382e36353561342e35343520342e35343520302030203020322e3139382d332e3830335635352e35333861342e323720342e32372030203020302d2e3537322d322e32303820342e323520342e32352030203020302d312e3632352d312e3539356c2d31342e3939332d382e3738367a222066696c6c3d2223666666222f3e3c646566733e3c6c696e6561724772616469656e742069643d2261222078313d2230222079313d2230222078323d22323730222079323d2232373022206772616469656e74556e6974733d227573657253706163654f6e557365223e3c73746f702073746f702d636f6c6f723d2276696f6c6574222f3e3c73746f70206f66667365743d2231222073746f702d6f7061636974793d222e3939222f3e3c2f6c696e6561724772616469656e743e3c2f646566733e3c7465787420783d223530252220793d223233312220746578742d616e63686f723d226d6964646c652220666f6e742d73697a653d223237222066696c6c3d2223666666222066696c7465723d2275726c282362292220666f6e742d66616d696c793d22506c7573204a616b617274612053616e732c44656a6156752053616e732c4e6f746f20436f6c6f7220456d6f6a692c4170706c6520436f6c6f7220456d6f6a692c73616e732d73657269662220666f6e742d7765696768743d22626f6c64223e",
  "linkReferences": {},
  "deployedLinkReferences": {}
}